:100000000C943A000C942A040C9470040C9457003D
:100010000C9457000C9457000C9457000C94570004
:100020000C9457000C9457000C9457000C945700F4
:100030000C9457000C9457000C9457000C945700E4
:100040000C9457000C9457000C9457000C945700D4
:100050000C945700B401D001B601B801BA01BC013B
:10006000BE01C001C201C401C601C801D101CA015B
:10007000CC01CE0111241FBECFE5D8E0DEBFCDBF3D
:1000800010E0A0E6B0E0EEECFDE002C005900D92BD
:10009000AE3EB107D9F720E0AEEEB0E001C01D9250
:1000A000A13FB207E1F70E942B060C94E5060C94E1
:1000B0000000FC0147B1908180E4989F90011124D9
:1000C000942F9F73292B27B986B19181887F892B23
:1000D00086B986B1806886B9089597B1907E8F7190
:1000E000892B87B986B1806486B9349BFECF86B1EF
:1000F000806186B984B195B10895683008F06FC009
:10010000843008F06CC0813001F130F08230B1F100
:10011000833009F44CC00895413059F42AB381E08A
:1001200090E002C0880F991F6A95E2F7822B8ABB84
:1001300008952AB381E090E002C0880F991F6A9564
:10014000E2F7809582238ABB0895413059F427B3A2
:1001500081E090E002C0880F991F6A95E2F7822B38
:1001600087BB089527B381E090E002C0880F991FF4
:100170006A95E2F78095822387BB0895413059F450
:1001800024B381E090E002C0880F991F6A95E2F7DE
:10019000822B84BB089524B381E090E002C0880FD5
:1001A000991F6A95E2F78095822384BB08954130B8
:1001B00059F421B381E090E002C0880F991F6A953D
:1001C000E2F7822B81BB089521B381E090E002C069
:1001D000880F991F6A95E2F78095822381BB089565
:1001E000683008F06FC0843008F06CC0813001F1D5
:1001F00030F08230B1F1833009F44CC008954130C1
:1002000059F42BB381E090E002C0880F991F6A95E2
:10021000E2F7822B8BBB08952BB381E090E002C004
:10022000880F991F6A95E2F7809582238BBB08950A
:10023000413059F428B381E090E002C0880F991F43
:100240006A95E2F7822B88BB089528B381E090E09D
:1002500002C0880F991F6A95E2F78095822388BBB8
:100260000895413059F425B381E090E002C0880F31
:10027000991F6A95E2F7822B85BB089525B381E02B
:1002800090E002C0880F991F6A95E2F7809582235B
:1002900085BB0895413059F422B381E090E002C05B
:1002A000880F991F6A95E2F7822B82BB089522B3CB
:1002B00081E090E002C0880F991F6A95E2F780956F
:1002C000822382BB08956830B0F58430B0F5813068
:1002D00089F028F08230C9F0833011F130C089B341
:1002E00090E002C0959587956A95E2F780FF29C056
:1002F00081E0089586B390E002C0959587956A9550
:10030000E2F780FF20C081E0089583B390E002C04F
:10031000959587956A95E2F780FF17C081E008956B
:1003200080B390E002C0959587956A95E2F780FFCB
:100330000EC081E0089580E0089580E0089580E097
:10034000089580E0089580E0089580E0089580E0B9
:100350000895482F50E0FA013197E031F10508F592
:10036000E65DFF4F0C949F0687E0089589E00895AD
:1003700085E2089584E0089585E0089586E0089573
:100380008AE2089581E0089582E0089583E0089567
:100390008DE2089580E008958DE308958BE208953D
:1003A00088E00895CF93DF9340E060E082E00E9410
:1003B0007D0040E061E082E00E947D0040E062E07C
:1003C00082E00E947D0040E063E082E00E947D00C8
:1003D00040E064E082E00E947D0040E065E082E071
:1003E0000E947D0040E066E082E00E947D0040E0E7
:1003F00067E082E00E947D00D0E02AC041E06D2FDE
:1004000082E00E947D0040E06D2F82E00E94F000BB
:10041000C0E010C064E06C0F82E00E9463018111B3
:1004200008C08D2F880F880F8C0F8F5F0E94A90145
:1004300012C0CF5FC43070F340E06D2F82E00E94A5
:100440007D0083ED90E30197F1F700C00000DF5FCE
:10045000D430A0F2D1CFDF91CF910895CF93C82FA0
:1004600040E061E081E00E94F00089EF90E00197B8
:10047000F1F700C0000041E060E081E00E94F00080
:1004800089EF90E00197F1F700C000004C2F407118
:1004900050E05595479555954795559547955595F0
:1004A000479564E080E00E94F0004C2F407250E0DD
:1004B0005595479555954795559547955595479524
:1004C0005595479565E080E00E94F0004C2F407400
:1004D00050E0042E452F000C441F550B000C441F08
:1004E000551F66E080E00E94F0004C2F441F442717
:1004F000441F67E080E00E94F00089EF90E00197E0
:10050000F1F700C0000040E060E081E00E94F000F0
:1005100089EF90E00197F1F700C0000041E060E052
:1005200081E00E94F00089EF90E00197F1F700C0B0
:1005300000004C2F417064E080E00E94F0004C2FDE
:10054000427050E05595479565E080E00E94F000CC
:100550004C2F447050E0559547955595479566E06A
:1005600080E00E94F000C8704C2F50E055954795F0
:10057000559547955595479567E080E00E94F000B6
:1005800089EF90E00197F1F700C0000040E060E0E3
:1005900081E00E94F00089EF90E00197F1F700C040
:1005A0000000CF91089541E061E081E00E947D006C
:1005B00041E060E081E00E947D0087E893E10197DF
:1005C000F1F700C0000041E064E080E00E947D009F
:1005D00041E065E080E00E947D0041E066E080E06F
:1005E0000E947D0041E067E080E00E947D0083E39F
:1005F0000E942E0282E30E942E0288E20E942E02B6
:100600008CE00E942E0281E00E942E020895CF937A
:10061000C82F41E061E081E00E94F00089EF90E0A6
:100620000197F1F700C0000041E060E081E00E9426
:10063000F00089EF90E00197F1F700C000004C2F27
:10064000407150E055954795559547955595479577
:100650005595479564E080E00E94F0004C2F407271
:1006600050E055954795559547955595479555951E
:1006700047955595479565E080E00E94F0004C2F26
:10068000407450E0042E452F000C441F550B000C05
:10069000441F551F66E080E00E94F0004C2F441F6D
:1006A0004427441F67E080E00E94F00089EF90E05B
:1006B0000197F1F700C0000040E060E081E00E9497
:1006C000F00089EF90E00197F1F700C0000041E0F1
:1006D00060E081E00E94F00089EF90E00197F1F77F
:1006E00000C000004C2F417064E080E00E94F000E8
:1006F0004C2F427050E05595479565E080E00E9490
:10070000F0004C2F447050E055954795559547950E
:1007100066E080E00E94F000C8704C2F50E05595D4
:100720004795559547955595479567E080E00E9418
:10073000F00089EF90E00197F1F700C0000040E081
:1007400060E081E00E94F00089EF90E00197F1F70E
:1007500000C00000CF9108950F931F93CF938C0199
:10076000C0E003C00E940703CF5FF801EC0FF11D4A
:1007700080818111F7CFCF911F910F910895813022
:1007800031F070F0823031F0833039F00AC090E4FB
:10079000960F07C090E1960F04C090E5960F01C038
:1007A000962F892F80680E942E020895CF93DF93A1
:1007B000EA010E94BF03CE010E94AC03DF91CF91FA
:1007C0000895CF93DF93CDB7DEB760970FB6F89457
:1007D000DEBF0FBECDBF4AE050E0BE016F5F7F4F6E
:1007E0000E94A506CE0101960E94AC0360960FB64A
:1007F000F894DEBF0FBECDBFDF91CF91089581E0A9
:100800000E942E02089567E081E00E94BF0384EEFB
:1008100090E00E94AC03089567E081E00E94BF036E
:1008200081E690E00E94AC0308956DE080E00E94B4
:10083000BF038091F00090E00E94E10308950E94C0
:10084000950662E083E00E9463018823D1F30E9451
:100850009A0608951F920F920FB60F9211242F93AC
:100860003F934F935F936F937F938F939F93AF9338
:10087000BF93EF93FF938091F000833019F40E94AF
:100880000C040FC00E941F048091F000823011F40C
:100890000E940C048091F0008F5F8093F0000E9412
:1008A00015048AB780648ABFFF91EF91BF91AF9121
:1008B0009F918F917F916F915F914F913F912F9178
:1008C0000F900FBE0F901F9018950E94950663E041
:1008D00083E00E9463018823D1F30E949A06089561
:1008E0001F920F920FB60F9211242F933F934F93A5
:1008F0005F936F937F938F939F93AF93BF93EF9388
:10090000FF938091F000833061F40E9465040E949F
:1009100003048091F00081508093F0000E94150440
:1009200009C00E9465048091F00081508093F0001E
:100930000E9415048AB780688ABFFF91EF91BF912A
:10094000AF919F918F917F916F915F914F913F9167
:100950002F910F900FBE0F901F9018958FB7806842
:100960008FBF089580E00E946D009093EF00809308
:10097000EE008F3F21E0920730F041E060E083E03D
:100980000E94F00008958F3F914028F440E060E01D
:1009900083E00E94F0000895DC0190E00DC0292F53
:1009A00030E0FD01E20FF31F5081FB01E20FF31F66
:1009B0002081521305C09F5F941788F384E1089546
:1009C0008AE00895CF930E94D201C82F83ED90E36F
:1009D0000197F1F700C000000E94D201C81711F082
:1009E0008FEF01C08C2FCF9108950E94E204909167
:1009F0006000891729F0809360008F3F19F00895F7
:100A00008FEF08958FEF0895EF92FF921F93CF938A
:100A1000DF937C01D62F142FC0E033C00E94F50471
:100A20008F3F79F18A30B8F4F701EC0FF11D808324
:100A30006C2F610F81E00E94BF038AE20E940703CE
:100A40002FE18FEB92E0215080409040E1F700C011
:100A50000000CF5F16C08D30A1F4CC2391F0C150BF
:100A6000612F6C0F81E00E94BF0380E20E940703A8
:100A70002FE18FEB92E0215080409040E1F700C0E1
:100A80000000CD1758F20E94F5048D33E1F7DF9195
:100A9000CF911F91FF90EF900895CF93DF9300D0F7
:100AA00000D0CDB7DEB71A8219821C821B820E9449
:100AB000FF038BE690E00E94AC0340E062E0CE01D1
:100AC00001960E9404050E94FF0387EA91E60197C0
:100AD000F1F700C000008CE790E00E94AC034DE805
:100AE00050E060E081E00E94D6034BE062E0CE017E
:100AF00003960E94040542E0BE016D5F7F4FCE0168
:100B000001960E94CC048A30C1F40E94FF0389E957
:100B100090E00E94AC034AEA50E060E081E00E946D
:100B2000D6039FEB27E289E0915020408040E1F717
:100B300000C000000E944D0517C08431A9F40E9436
:100B4000FF0380EB90E00E94AC0341EC50E060E0DA
:100B500081E00E94D6039FED23E984E0915020407C
:100B60008040E1F700C000000F900F900F900F90B1
:100B7000DF91CF910895CF93C42F882319F081304E
:100B8000A9F167C08BB780648BBF611106C040E0DC
:100B900062E083E00E947D0005C041E062E083E006
:100BA0000E947D00C13069F028F0C23089F0C33066
:100BB000B1F04FC085B78E7F85BF85B78D7F85BF6C
:100BC00048C085B78D7F85BF85B7816085BF41C02F
:100BD00085B78E7F85BF85B7826085BF3AC085B7F0
:100BE000816085BF85B7826085BF33C08BB7806861
:100BF0008BBF611106C040E063E083E00E947D008E
:100C000005C041E063E083E00E947D00C13069F0EF
:100C100028F0C23089F0C330B1F01BC085B78B7F9C
:100C200085BF85B7877F85BF14C085B7877F85BFA0
:100C300085B7846085BF0DC085B78B7F85BF85B7BD
:100C4000886085BF06C085B7846085BF85B788602A
:100C500085BFCF910895CF93DF9300D0CDB7DEB796
:100C60000E94920681E0898386E08A830E94AE0416
:100C700041E060E083E00E947D0040E062E083E0CC
:100C80000E947D0040E063E083E00E947D0041E03F
:100C900062E083E00E94F00041E063E083E00E94B4
:100CA000F00040E060E083E00E94F000CE01019699
:100CB0000E9459000E94D3020E944D050E94FF032A
:100CC00087EA91E60197F1F700C000008EEC90E012
:100CD0000E94AC0360E081E00E94BF038DED90E0D4
:100CE0000E94AC0342E060E080E00E94BB0542E06D
:100CF00060E081E00E94BB050E94B204FDCF41E0AC
:100D000065E083E00E947D001DBC1CBC83EC99E083
:100D100097BD86BD82E88FBD8BE18EBD08959BBDDA
:100D20008ABD08950E947F0608958BEB90E00E9493
:100D30008F0608958DE790E00E948F060895EE0FCC
:100D4000FF1F0590F491E02D09944532510520F4E0
:100D5000423010F00C94B006FB011082CB010895D4
:100D6000BB274A3031F4992322F4BDE29095819556
:100D70009F4F0C94BC06BB27FB015527AA27880F61
:100D8000991FAA1FA41710F0A41B83955051B9F7FF
:100D9000A05DAA3308F0A95DA193009779F7B1117E
:100DA000B1931192CB010C94D506DC01FC01672FA5
:100DB00071917723E1F7329704C07C916D93708332
:0E0DC0006291AE17BF07C8F30895F894FFCFF5
:100DCE00FF42757379202020202000456E746572D5
:100DDE0020706173732032204E756D00706C7A2016
:100DEE0072652D656E746572207468650073616D31
:100DFE006520706173733A200050617373776F7260
:100E0E006473206469666665720052657472790057
:100E1E0050617373776F7264206372656174656479
:100E2E00007375636365737366756C6C79004361EB
:100E3E007273204E756D626572203D300053746181
:0E0E4E0074653A20417661696C61626C6500E2
:00000001FF
